{
  "_format": "hh-sol-artifact-1",
  "contractName": "ResumeScore",
  "sourceName": "contracts/ResumeScore.sol",
  "abi": [
    {
      "inputs": [
        {
          "internalType": "address",
          "name": "user",
          "type": "address"
        }
      ],
      "name": "getResume",
      "outputs": [
        {
          "internalType": "string",
          "name": "",
          "type": "string"
        },
        {
          "internalType": "uint256",
          "name": "",
          "type": "uint256"
        }
      ],
      "stateMutability": "view",
      "type": "function"
    },
    {
      "inputs": [
        {
          "internalType": "address",
          "name": "",
          "type": "address"
        }
      ],
      "name": "resumes",
      "outputs": [
        {
          "internalType": "string",
          "name": "ipfsHash",
          "type": "string"
        },
        {
          "internalType": "uint256",
          "name": "score",
          "type": "uint256"
        }
      ],
      "stateMutability": "view",
      "type": "function"
    },
    {
      "inputs": [
        {
          "internalType": "string",
          "name": "ipfsHash",
          "type": "string"
        },
        {
          "internalType": "uint256",
          "name": "score",
          "type": "uint256"
        }
      ],
      "name": "uploadResume",
      "outputs": [],
      "stateMutability": "nonpayable",
      "type": "function"
    }
  ],
  "bytecode": "0x608060405234801561001057600080fd5b50610933806100206000396000f3fe608060405234801561001057600080fd5b50600436106100415760003560e01c8063311a5ae51461004657806358eb94dc14610077578063f82dbb5a14610093575b600080fd5b610060600480360381019061005b919061035c565b6100c4565b60405161006e929190610432565b60405180910390f35b610091600480360381019061008c91906105c3565b6101c4565b005b6100ad60048036038101906100a8919061035c565b61023e565b6040516100bb929190610432565b60405180910390f35b60606000806000808573ffffffffffffffffffffffffffffffffffffffff1673ffffffffffffffffffffffffffffffffffffffff1681526020019081526020016000206040518060400160405290816000820180546101229061064e565b80601f016020809104026020016040519081016040528092919081815260200182805461014e9061064e565b801561019b5780601f106101705761010080835404028352916020019161019b565b820191906000526020600020905b81548152906001019060200180831161017e57829003601f168201915b505050505081526020016001820154815250509050806000015181602001519250925050915091565b6040518060400160405280838152602001828152506000803373ffffffffffffffffffffffffffffffffffffffff1673ffffffffffffffffffffffffffffffffffffffff168152602001908152602001600020600082015181600001908161022c919061082b565b50602082015181600101559050505050565b60006020528060005260406000206000915090508060000180546102619061064e565b80601f016020809104026020016040519081016040528092919081815260200182805461028d9061064e565b80156102da5780601f106102af576101008083540402835291602001916102da565b820191906000526020600020905b8154815290600101906020018083116102bd57829003601f168201915b5050505050908060010154905082565b6000604051905090565b600080fd5b600080fd5b600073ffffffffffffffffffffffffffffffffffffffff82169050919050565b6000610329826102fe565b9050919050565b6103398161031e565b811461034457600080fd5b50565b60008135905061035681610330565b92915050565b600060208284031215610372576103716102f4565b5b600061038084828501610347565b91505092915050565b600081519050919050565b600082825260208201905092915050565b60005b838110156103c35780820151818401526020810190506103a8565b60008484015250505050565b6000601f19601f8301169050919050565b60006103eb82610389565b6103f58185610394565b93506104058185602086016103a5565b61040e816103cf565b840191505092915050565b6000819050919050565b61042c81610419565b82525050565b6000604082019050818103600083015261044c81856103e0565b905061045b6020830184610423565b9392505050565b600080fd5b600080fd5b7f4e487b7100000000000000000000000000000000000000000000000000000000600052604160045260246000fd5b6104a4826103cf565b810181811067ffffffffffffffff821117156104c3576104c261046c565b5b80604052505050565b60006104d66102ea565b90506104e2828261049b565b919050565b600067ffffffffffffffff8211156105025761050161046c565b5b61050b826103cf565b9050602081019050919050565b82818337600083830152505050565b600061053a610535846104e7565b6104cc565b90508281526020810184848401111561055657610555610467565b5b610561848285610518565b509392505050565b600082601f83011261057e5761057d610462565b5b813561058e848260208601610527565b91505092915050565b6105a081610419565b81146105ab57600080fd5b50565b6000813590506105bd81610597565b92915050565b600080604083850312156105da576105d96102f4565b5b600083013567ffffffffffffffff8111156105f8576105f76102f9565b5b61060485828601610569565b9250506020610615858286016105ae565b9150509250929050565b7f4e487b7100000000000000000000000000000000000000000000000000000000600052602260045260246000fd5b6000600282049050600182168061066657607f821691505b6020821081036106795761067861061f565b5b50919050565b60008190508160005260206000209050919050565b60006020601f8301049050919050565b600082821b905092915050565b6000600883026106e17fffffffffffffffffffffffffffffffffffffffffffffffffffffffffffffffff826106a4565b6106eb86836106a4565b95508019841693508086168417925050509392505050565b6000819050919050565b600061072861072361071e84610419565b610703565b610419565b9050919050565b6000819050919050565b6107428361070d565b61075661074e8261072f565b8484546106b1565b825550505050565b600090565b61076b61075e565b610776818484610739565b505050565b5b8181101561079a5761078f600082610763565b60018101905061077c565b5050565b601f8211156107df576107b08161067f565b6107b984610694565b810160208510156107c8578190505b6107dc6107d485610694565b83018261077b565b50505b505050565b600082821c905092915050565b6000610802600019846008026107e4565b1980831691505092915050565b600061081b83836107f1565b9150826002028217905092915050565b61083482610389565b67ffffffffffffffff81111561084d5761084c61046c565b5b610857825461064e565b61086282828561079e565b600060209050601f8311600181146108955760008415610883578287015190505b61088d858261080f565b8655506108f5565b601f1984166108a38661067f565b60005b828110156108cb578489015182556001820191506020850194506020810190506108a6565b868310156108e857848901516108e4601f8916826107f1565b8355505b6001600288020188555050505b50505050505056fea2646970667358221220c4ce6fa9769eff79f02905d433eef5eb0613fbbd6cc821c3a0348715d1ffd50364736f6c63430008140033",
  "linkReferences": {},
  "deployedLinkReferences": {}
}